{
  "_format": "hh-sol-artifact-1",
  "contractName": "Voting",
  "sourceName": "contracts/Voting.sol",
  "abi": [
    {
      "inputs": [
        {
          "internalType": "string",
          "name": "_eventName",
          "type": "string"
        }
      ],
      "stateMutability": "nonpayable",
      "type": "constructor"
    },
    {
      "anonymous": false,
      "inputs": [
        {
          "indexed": false,
          "internalType": "string",
          "name": "msg",
          "type": "string"
        }
      ],
      "name": "success",
      "type": "event"
    },
    {
      "inputs": [
        {
          "internalType": "uint256",
          "name": "",
          "type": "uint256"
        }
      ],
      "name": "candidateList",
      "outputs": [
        {
          "internalType": "string",
          "name": "name",
          "type": "string"
        },
        {
          "internalType": "uint256",
          "name": "age",
          "type": "uint256"
        },
        {
          "internalType": "bool",
          "name": "registered",
          "type": "bool"
        },
        {
          "internalType": "address",
          "name": "candidateAddress",
          "type": "address"
        },
        {
          "internalType": "uint256",
          "name": "votes",
          "type": "uint256"
        }
      ],
      "stateMutability": "view",
      "type": "function"
    },
    {
      "inputs": [
        {
          "internalType": "address",
          "name": "",
          "type": "address"
        }
      ],
      "name": "candidates",
      "outputs": [
        {
          "internalType": "uint256",
          "name": "",
          "type": "uint256"
        }
      ],
      "stateMutability": "view",
      "type": "function"
    },
    {
      "inputs": [],
      "name": "eventName",
      "outputs": [
        {
          "internalType": "string",
          "name": "",
          "type": "string"
        }
      ],
      "stateMutability": "view",
      "type": "function"
    },
    {
      "inputs": [],
      "name": "getAllCandidate",
      "outputs": [
        {
          "components": [
            {
              "internalType": "string",
              "name": "name",
              "type": "string"
            },
            {
              "internalType": "uint256",
              "name": "age",
              "type": "uint256"
            },
            {
              "internalType": "bool",
              "name": "registered",
              "type": "bool"
            },
            {
              "internalType": "address",
              "name": "candidateAddress",
              "type": "address"
            },
            {
              "internalType": "uint256",
              "name": "votes",
              "type": "uint256"
            }
          ],
          "internalType": "struct Voting.Candidate[]",
          "name": "list",
          "type": "tuple[]"
        }
      ],
      "stateMutability": "view",
      "type": "function"
    },
    {
      "inputs": [],
      "name": "getWinner",
      "outputs": [
        {
          "components": [
            {
              "internalType": "string",
              "name": "name",
              "type": "string"
            },
            {
              "internalType": "uint256",
              "name": "age",
              "type": "uint256"
            },
            {
              "internalType": "bool",
              "name": "registered",
              "type": "bool"
            },
            {
              "internalType": "address",
              "name": "candidateAddress",
              "type": "address"
            },
            {
              "internalType": "uint256",
              "name": "votes",
              "type": "uint256"
            }
          ],
          "internalType": "struct Voting.Candidate",
          "name": "candidate",
          "type": "tuple"
        }
      ],
      "stateMutability": "view",
      "type": "function"
    },
    {
      "inputs": [],
      "name": "owner",
      "outputs": [
        {
          "internalType": "address",
          "name": "",
          "type": "address"
        }
      ],
      "stateMutability": "view",
      "type": "function"
    },
    {
      "inputs": [
        {
          "internalType": "address",
          "name": "_candidateAddress",
          "type": "address"
        }
      ],
      "name": "putVote",
      "outputs": [],
      "stateMutability": "nonpayable",
      "type": "function"
    },
    {
      "inputs": [
        {
          "internalType": "string",
          "name": "_name",
          "type": "string"
        },
        {
          "internalType": "uint256",
          "name": "_age",
          "type": "uint256"
        },
        {
          "internalType": "address",
          "name": "_candidateAddress",
          "type": "address"
        }
      ],
      "name": "registerCandidates",
      "outputs": [],
      "stateMutability": "nonpayable",
      "type": "function"
    },
    {
      "inputs": [],
      "name": "startVoting",
      "outputs": [],
      "stateMutability": "nonpayable",
      "type": "function"
    },
    {
      "inputs": [],
      "name": "stopVoting",
      "outputs": [],
      "stateMutability": "nonpayable",
      "type": "function"
    },
    {
      "inputs": [],
      "name": "totalVote",
      "outputs": [
        {
          "internalType": "uint256",
          "name": "",
          "type": "uint256"
        }
      ],
      "stateMutability": "view",
      "type": "function"
    },
    {
      "inputs": [
        {
          "internalType": "address",
          "name": "",
          "type": "address"
        }
      ],
      "name": "voterList",
      "outputs": [
        {
          "internalType": "bool",
          "name": "registered",
          "type": "bool"
        },
        {
          "internalType": "bool",
          "name": "voted",
          "type": "bool"
        }
      ],
      "stateMutability": "view",
      "type": "function"
    },
    {
      "inputs": [],
      "name": "votingStatus",
      "outputs": [
        {
          "internalType": "bool",
          "name": "",
          "type": "bool"
        }
      ],
      "stateMutability": "view",
      "type": "function"
    },
    {
      "inputs": [
        {
          "internalType": "address",
          "name": "_voterAddress",
          "type": "address"
        }
      ],
      "name": "whiteListAddress",
      "outputs": [],
      "stateMutability": "nonpayable",
      "type": "function"
    },
    {
      "inputs": [],
      "name": "winnerAddress",
      "outputs": [
        {
          "internalType": "address",
          "name": "",
          "type": "address"
        }
      ],
      "stateMutability": "view",
      "type": "function"
    }
  ],
  "bytecode": "0x60806040523480156200001157600080fd5b5060405162002d3c38038062002d3c833981810160405281019062000037919062000246565b336000806101000a81548173ffffffffffffffffffffffffffffffffffffffff021916908373ffffffffffffffffffffffffffffffffffffffff1602179055508060029081620000889190620004e2565b5060006003819055506000600460006101000a81548160ff02191690831515021790555050620005c9565b6000604051905090565b600080fd5b600080fd5b600080fd5b600080fd5b6000601f19601f8301169050919050565b7f4e487b7100000000000000000000000000000000000000000000000000000000600052604160045260246000fd5b6200011c82620000d1565b810181811067ffffffffffffffff821117156200013e576200013d620000e2565b5b80604052505050565b600062000153620000b3565b905062000161828262000111565b919050565b600067ffffffffffffffff821115620001845762000183620000e2565b5b6200018f82620000d1565b9050602081019050919050565b60005b83811015620001bc5780820151818401526020810190506200019f565b60008484015250505050565b6000620001df620001d98462000166565b62000147565b905082815260208101848484011115620001fe57620001fd620000cc565b5b6200020b8482856200019c565b509392505050565b600082601f8301126200022b576200022a620000c7565b5b81516200023d848260208601620001c8565b91505092915050565b6000602082840312156200025f576200025e620000bd565b5b600082015167ffffffffffffffff81111562000280576200027f620000c2565b5b6200028e8482850162000213565b91505092915050565b600081519050919050565b7f4e487b7100000000000000000000000000000000000000000000000000000000600052602260045260246000fd5b60006002820490506001821680620002ea57607f821691505b6020821081036200030057620002ff620002a2565b5b50919050565b60008190508160005260206000209050919050565b60006020601f8301049050919050565b600082821b905092915050565b6000600883026200036a7fffffffffffffffffffffffffffffffffffffffffffffffffffffffffffffffff826200032b565b6200037686836200032b565b95508019841693508086168417925050509392505050565b6000819050919050565b6000819050919050565b6000620003c3620003bd620003b7846200038e565b62000398565b6200038e565b9050919050565b6000819050919050565b620003df83620003a2565b620003f7620003ee82620003ca565b84845462000338565b825550505050565b600090565b6200040e620003ff565b6200041b818484620003d4565b505050565b5b8181101562000443576200043760008262000404565b60018101905062000421565b5050565b601f82111562000492576200045c8162000306565b62000467846200031b565b8101602085101562000477578190505b6200048f62000486856200031b565b83018262000420565b50505b505050565b600082821c905092915050565b6000620004b76000198460080262000497565b1980831691505092915050565b6000620004d28383620004a4565b9150826002028217905092915050565b620004ed8262000297565b67ffffffffffffffff811115620005095762000508620000e2565b5b620005158254620002d1565b6200052282828562000447565b600060209050601f8311600181146200055a576000841562000545578287015190505b620005518582620004c4565b865550620005c1565b601f1984166200056a8662000306565b60005b8281101562000594578489015182556001820191506020850194506020810190506200056d565b86831015620005b45784890151620005b0601f891682620004a4565b8355505b6001600288020188555050505b505050505050565b61276380620005d96000396000f3fe608060405234801561001057600080fd5b50600436106100f55760003560e01c80638da5cb5b11610097578063ed7a4e0b11610066578063ed7a4e0b14610265578063efd5297c14610283578063f1cea4c7146102a1578063fab2f86b146102bf576100f5565b80638da5cb5b146101d95780638e7ea5b2146101f7578063b13c744b14610215578063cf52a7b214610249576100f5565b80633c71a6d5116100d35780633c71a6d5146101535780638043c9c01461016f57806388fb6f741461018d5780638ab66a90146101a9576100f5565b806303b4caed146100fa57806319f41a401461012b5780631ec6b60a14610149575b600080fd5b610114600480360381019061010f91906115af565b6102c9565b6040516101229291906115f7565b60405180910390f35b610133610307565b6040516101409190611620565b60405180910390f35b61015161031e565b005b61016d600480360381019061016891906117b7565b6103fe565b005b610177610750565b60405161018491906118a5565b60405180910390f35b6101a760048036038101906101a291906115af565b6107de565b005b6101c360048036038101906101be91906115af565b610c70565b6040516101d091906118d6565b60405180910390f35b6101e1610c88565b6040516101ee9190611900565b60405180910390f35b6101ff610cac565b60405161020c9190611a08565b60405180910390f35b61022f600480360381019061022a9190611a2a565b610eec565b604051610240959493929190611a57565b60405180910390f35b610263600480360381019061025e91906115af565b610fe7565b005b61026d611274565b60405161027a9190611900565b60405180910390f35b61028b61129a565b6040516102989190611be9565b60405180910390f35b6102a9611410565b6040516102b691906118d6565b60405180910390f35b6102c7611416565b005b60076020528060005260406000206000915090508060000160009054906101000a900460ff16908060000160019054906101000a900460ff16905082565b6000600460009054906101000a900460ff16905090565b60008054906101000a900473ffffffffffffffffffffffffffffffffffffffff1673ffffffffffffffffffffffffffffffffffffffff163373ffffffffffffffffffffffffffffffffffffffff16146103ac576040517f08c379a00000000000000000000000000000000000000000000000000000000081526004016103a390611c57565b60405180910390fd5b6001600460006101000a81548160ff0219169083151502179055507f68f068b2f0d02fca99bc8285b62fce8668fe16b7c6a810351ea25bff358c0dd86040516103f490611cc3565b60405180910390a1565b60008054906101000a900473ffffffffffffffffffffffffffffffffffffffff1673ffffffffffffffffffffffffffffffffffffffff163373ffffffffffffffffffffffffffffffffffffffff161461048c576040517f08c379a000000000000000000000000000000000000000000000000000000000815260040161048390611d55565b60405180910390fd5b60008054906101000a900473ffffffffffffffffffffffffffffffffffffffff1673ffffffffffffffffffffffffffffffffffffffff168173ffffffffffffffffffffffffffffffffffffffff160361051a576040517f08c379a000000000000000000000000000000000000000000000000000000000815260040161051190611dc1565b60405180910390fd5b6000600560008373ffffffffffffffffffffffffffffffffffffffff1673ffffffffffffffffffffffffffffffffffffffff168152602001908152602001600020541461059c576040517f08c379a000000000000000000000000000000000000000000000000000000000815260040161059390611e2d565b60405180910390fd5b60006040518060a001604052808581526020018481526020016001151581526020018373ffffffffffffffffffffffffffffffffffffffff1681526020016000815250905060006006805490500361060d576006600181600181540180825580915050039060005260206000209050505b600680549050600560008473ffffffffffffffffffffffffffffffffffffffff1673ffffffffffffffffffffffffffffffffffffffff16815260200190815260200160002081905550600681908060018154018082558091505060019003906000526020600020906004020160009091909190915060008201518160000190816106979190612059565b506020820151816001015560408201518160020160006101000a81548160ff02191690831515021790555060608201518160020160016101000a81548173ffffffffffffffffffffffffffffffffffffffff021916908373ffffffffffffffffffffffffffffffffffffffff1602179055506080820151816003015550507f68f068b2f0d02fca99bc8285b62fce8668fe16b7c6a810351ea25bff358c0dd860405161074290612177565b60405180910390a150505050565b6002805461075d90611e7c565b80601f016020809104026020016040519081016040528092919081815260200182805461078990611e7c565b80156107d65780601f106107ab576101008083540402835291602001916107d6565b820191906000526020600020905b8154815290600101906020018083116107b957829003601f168201915b505050505081565b60011515600460009054906101000a900460ff16151514610834576040517f08c379a000000000000000000000000000000000000000000000000000000000815260040161082b90612209565b60405180910390fd5b60008054906101000a900473ffffffffffffffffffffffffffffffffffffffff1673ffffffffffffffffffffffffffffffffffffffff163373ffffffffffffffffffffffffffffffffffffffff16036108c2576040517f08c379a00000000000000000000000000000000000000000000000000000000081526004016108b990612275565b60405180910390fd5b60011515600760003373ffffffffffffffffffffffffffffffffffffffff1673ffffffffffffffffffffffffffffffffffffffff16815260200190815260200160002060000160009054906101000a900460ff16151514610958576040517f08c379a000000000000000000000000000000000000000000000000000000000815260040161094f906122e1565b60405180910390fd5b60001515600760003373ffffffffffffffffffffffffffffffffffffffff1673ffffffffffffffffffffffffffffffffffffffff16815260200190815260200160002060000160019054906101000a900460ff161515146109ee576040517f08c379a00000000000000000000000000000000000000000000000000000000081526004016109e59061234d565b60405180910390fd5b600115156006600560008473ffffffffffffffffffffffffffffffffffffffff1673ffffffffffffffffffffffffffffffffffffffff1681526020019081526020016000205481548110610a4557610a4461236d565b5b906000526020600020906004020160020160009054906101000a900460ff16151514610aa6576040517f08c379a0000000000000000000000000000000000000000000000000000000008152600401610a9d906123e8565b60405180910390fd5b6006600560008373ffffffffffffffffffffffffffffffffffffffff1673ffffffffffffffffffffffffffffffffffffffff1681526020019081526020016000205481548110610af957610af861236d565b5b90600052602060002090600402016003016000815480929190610b1b90612437565b91905055506001600760003373ffffffffffffffffffffffffffffffffffffffff1673ffffffffffffffffffffffffffffffffffffffff16815260200190815260200160002060000160016101000a81548160ff02191690831515021790555060006006600560008473ffffffffffffffffffffffffffffffffffffffff1673ffffffffffffffffffffffffffffffffffffffff1681526020019081526020016000205481548110610bd057610bcf61236d565b5b9060005260206000209060040201600301549050806003541015610c37578060038190555081600160006101000a81548173ffffffffffffffffffffffffffffffffffffffff021916908373ffffffffffffffffffffffffffffffffffffffff1602179055505b7f68f068b2f0d02fca99bc8285b62fce8668fe16b7c6a810351ea25bff358c0dd8604051610c64906124cb565b60405180910390a15050565b60056020528060005260406000206000915090505481565b60008054906101000a900473ffffffffffffffffffffffffffffffffffffffff1681565b610cb46114f6565b60008054906101000a900473ffffffffffffffffffffffffffffffffffffffff1673ffffffffffffffffffffffffffffffffffffffff163373ffffffffffffffffffffffffffffffffffffffff1614610d42576040517f08c379a0000000000000000000000000000000000000000000000000000000008152600401610d3990612537565b60405180910390fd5b600660056000600160009054906101000a900473ffffffffffffffffffffffffffffffffffffffff1673ffffffffffffffffffffffffffffffffffffffff1673ffffffffffffffffffffffffffffffffffffffff1681526020019081526020016000205481548110610db757610db661236d565b5b90600052602060002090600402016040518060a0016040529081600082018054610de090611e7c565b80601f0160208091040260200160405190810160405280929190818152602001828054610e0c90611e7c565b8015610e595780601f10610e2e57610100808354040283529160200191610e59565b820191906000526020600020905b815481529060010190602001808311610e3c57829003601f168201915b50505050508152602001600182015481526020016002820160009054906101000a900460ff161515151581526020016002820160019054906101000a900473ffffffffffffffffffffffffffffffffffffffff1673ffffffffffffffffffffffffffffffffffffffff1673ffffffffffffffffffffffffffffffffffffffff168152602001600382015481525050905090565b60068181548110610efc57600080fd5b9060005260206000209060040201600091509050806000018054610f1f90611e7c565b80601f0160208091040260200160405190810160405280929190818152602001828054610f4b90611e7c565b8015610f985780601f10610f6d57610100808354040283529160200191610f98565b820191906000526020600020905b815481529060010190602001808311610f7b57829003601f168201915b5050505050908060010154908060020160009054906101000a900460ff16908060020160019054906101000a900473ffffffffffffffffffffffffffffffffffffffff16908060030154905085565b60008054906101000a900473ffffffffffffffffffffffffffffffffffffffff1673ffffffffffffffffffffffffffffffffffffffff168173ffffffffffffffffffffffffffffffffffffffff1603611075576040517f08c379a000000000000000000000000000000000000000000000000000000000815260040161106c90612275565b60405180910390fd5b60008054906101000a900473ffffffffffffffffffffffffffffffffffffffff1673ffffffffffffffffffffffffffffffffffffffff163373ffffffffffffffffffffffffffffffffffffffff1614611103576040517f08c379a00000000000000000000000000000000000000000000000000000000081526004016110fa906125c9565b60405180910390fd5b60001515600760008373ffffffffffffffffffffffffffffffffffffffff1673ffffffffffffffffffffffffffffffffffffffff16815260200190815260200160002060000160009054906101000a900460ff16151514611199576040517f08c379a000000000000000000000000000000000000000000000000000000000815260040161119090612635565b60405180910390fd5b6000604051806040016040528060011515815260200160001515815250905080600760008473ffffffffffffffffffffffffffffffffffffffff1673ffffffffffffffffffffffffffffffffffffffff16815260200190815260200160002060008201518160000160006101000a81548160ff02191690831515021790555060208201518160000160016101000a81548160ff0219169083151502179055509050507f68f068b2f0d02fca99bc8285b62fce8668fe16b7c6a810351ea25bff358c0dd8604051611268906126a1565b60405180910390a15050565b600160009054906101000a900473ffffffffffffffffffffffffffffffffffffffff1681565b60606006805480602002602001604051908101604052809291908181526020016000905b8282101561140757838290600052602060002090600402016040518060a00160405290816000820180546112f190611e7c565b80601f016020809104026020016040519081016040528092919081815260200182805461131d90611e7c565b801561136a5780601f1061133f5761010080835404028352916020019161136a565b820191906000526020600020905b81548152906001019060200180831161134d57829003601f168201915b50505050508152602001600182015481526020016002820160009054906101000a900460ff161515151581526020016002820160019054906101000a900473ffffffffffffffffffffffffffffffffffffffff1673ffffffffffffffffffffffffffffffffffffffff1673ffffffffffffffffffffffffffffffffffffffff168152602001600382015481525050815260200190600101906112be565b50505050905090565b60035481565b60008054906101000a900473ffffffffffffffffffffffffffffffffffffffff1673ffffffffffffffffffffffffffffffffffffffff163373ffffffffffffffffffffffffffffffffffffffff16146114a4576040517f08c379a000000000000000000000000000000000000000000000000000000000815260040161149b90611c57565b60405180910390fd5b6000600460006101000a81548160ff0219169083151502179055507f68f068b2f0d02fca99bc8285b62fce8668fe16b7c6a810351ea25bff358c0dd86040516114ec9061270d565b60405180910390a1565b6040518060a001604052806060815260200160008152602001600015158152602001600073ffffffffffffffffffffffffffffffffffffffff168152602001600081525090565b6000604051905090565b600080fd5b600080fd5b600073ffffffffffffffffffffffffffffffffffffffff82169050919050565b600061157c82611551565b9050919050565b61158c81611571565b811461159757600080fd5b50565b6000813590506115a981611583565b92915050565b6000602082840312156115c5576115c4611547565b5b60006115d38482850161159a565b91505092915050565b60008115159050919050565b6115f1816115dc565b82525050565b600060408201905061160c60008301856115e8565b61161960208301846115e8565b9392505050565b600060208201905061163560008301846115e8565b92915050565b600080fd5b600080fd5b6000601f19601f8301169050919050565b7f4e487b7100000000000000000000000000000000000000000000000000000000600052604160045260246000fd5b61168e82611645565b810181811067ffffffffffffffff821117156116ad576116ac611656565b5b80604052505050565b60006116c061153d565b90506116cc8282611685565b919050565b600067ffffffffffffffff8211156116ec576116eb611656565b5b6116f582611645565b9050602081019050919050565b82818337600083830152505050565b600061172461171f846116d1565b6116b6565b9050828152602081018484840111156117405761173f611640565b5b61174b848285611702565b509392505050565b600082601f8301126117685761176761163b565b5b8135611778848260208601611711565b91505092915050565b6000819050919050565b61179481611781565b811461179f57600080fd5b50565b6000813590506117b18161178b565b92915050565b6000806000606084860312156117d0576117cf611547565b5b600084013567ffffffffffffffff8111156117ee576117ed61154c565b5b6117fa86828701611753565b935050602061180b868287016117a2565b925050604061181c8682870161159a565b9150509250925092565b600081519050919050565b600082825260208201905092915050565b60005b83811015611860578082015181840152602081019050611845565b60008484015250505050565b600061187782611826565b6118818185611831565b9350611891818560208601611842565b61189a81611645565b840191505092915050565b600060208201905081810360008301526118bf818461186c565b905092915050565b6118d081611781565b82525050565b60006020820190506118eb60008301846118c7565b92915050565b6118fa81611571565b82525050565b600060208201905061191560008301846118f1565b92915050565b600082825260208201905092915050565b600061193782611826565b611941818561191b565b9350611951818560208601611842565b61195a81611645565b840191505092915050565b61196e81611781565b82525050565b61197d816115dc565b82525050565b61198c81611571565b82525050565b600060a08301600083015184820360008601526119af828261192c565b91505060208301516119c46020860182611965565b5060408301516119d76040860182611974565b5060608301516119ea6060860182611983565b5060808301516119fd6080860182611965565b508091505092915050565b60006020820190508181036000830152611a228184611992565b905092915050565b600060208284031215611a4057611a3f611547565b5b6000611a4e848285016117a2565b91505092915050565b600060a0820190508181036000830152611a71818861186c565b9050611a8060208301876118c7565b611a8d60408301866115e8565b611a9a60608301856118f1565b611aa760808301846118c7565b9695505050505050565b600081519050919050565b600082825260208201905092915050565b6000819050602082019050919050565b600060a0830160008301518482036000860152611afa828261192c565b9150506020830151611b0f6020860182611965565b506040830151611b226040860182611974565b506060830151611b356060860182611983565b506080830151611b486080860182611965565b508091505092915050565b6000611b5f8383611add565b905092915050565b6000602082019050919050565b6000611b7f82611ab1565b611b898185611abc565b935083602082028501611b9b85611acd565b8060005b85811015611bd75784840389528151611bb88582611b53565b9450611bc383611b67565b925060208a01995050600181019050611b9f565b50829750879550505050505092915050565b60006020820190508181036000830152611c038184611b74565b905092915050565b7f4f6e6c79206f776e65722063616e20737461727420766f74696e672121000000600082015250565b6000611c41601d83611831565b9150611c4c82611c0b565b602082019050919050565b60006020820190508181036000830152611c7081611c34565b9050919050565b7f566f74696e672053746172746564212100000000000000000000000000000000600082015250565b6000611cad601083611831565b9150611cb882611c77565b602082019050919050565b60006020820190508181036000830152611cdc81611ca0565b9050919050565b7f4f6e6c79206f776e65722063616e2072656769737465722043616e646964617460008201527f6521210000000000000000000000000000000000000000000000000000000000602082015250565b6000611d3f602383611831565b9150611d4a82611ce3565b604082019050919050565b60006020820190508181036000830152611d6e81611d32565b9050919050565b7f4f776e65722063616e206e6f7420706172746963697061746521210000000000600082015250565b6000611dab601b83611831565b9150611db682611d75565b602082019050919050565b60006020820190508181036000830152611dda81611d9e565b9050919050565b7f43616e64696461746520616c7265616479207265676973746572656400000000600082015250565b6000611e17601c83611831565b9150611e2282611de1565b602082019050919050565b60006020820190508181036000830152611e4681611e0a565b9050919050565b7f4e487b7100000000000000000000000000000000000000000000000000000000600052602260045260246000fd5b60006002820490506001821680611e9457607f821691505b602082108103611ea757611ea6611e4d565b5b50919050565b60008190508160005260206000209050919050565b60006020601f8301049050919050565b600082821b905092915050565b600060088302611f0f7fffffffffffffffffffffffffffffffffffffffffffffffffffffffffffffffff82611ed2565b611f198683611ed2565b95508019841693508086168417925050509392505050565b6000819050919050565b6000611f56611f51611f4c84611781565b611f31565b611781565b9050919050565b6000819050919050565b611f7083611f3b565b611f84611f7c82611f5d565b848454611edf565b825550505050565b600090565b611f99611f8c565b611fa4818484611f67565b505050565b5b81811015611fc857611fbd600082611f91565b600181019050611faa565b5050565b601f82111561200d57611fde81611ead565b611fe784611ec2565b81016020851015611ff6578190505b61200a61200285611ec2565b830182611fa9565b50505b505050565b600082821c905092915050565b600061203060001984600802612012565b1980831691505092915050565b6000612049838361201f565b9150826002028217905092915050565b61206282611826565b67ffffffffffffffff81111561207b5761207a611656565b5b6120858254611e7c565b612090828285611fcc565b600060209050601f8311600181146120c357600084156120b1578287015190505b6120bb858261203d565b865550612123565b601f1984166120d186611ead565b60005b828110156120f9578489015182556001820191506020850194506020810190506120d4565b868310156121165784890151612112601f89168261201f565b8355505b6001600288020188555050505b505050505050565b7f43616e6469646174652072656769737465726564212100000000000000000000600082015250565b6000612161601683611831565b915061216c8261212b565b602082019050919050565b6000602082019050818103600083015261219081612154565b9050919050565b7f566f74696e67206e6f74207374617274656420796574206f7220656e6465642160008201527f2100000000000000000000000000000000000000000000000000000000000000602082015250565b60006121f3602183611831565b91506121fe82612197565b604082019050919050565b60006020820190508181036000830152612222816121e6565b9050919050565b7f4f776e65722063616e206e6f7420766f74652121000000000000000000000000600082015250565b600061225f601483611831565b915061226a82612229565b602082019050919050565b6000602082019050818103600083015261228e81612252565b9050919050565b7f566f746572206e6f742072656769737465726564212100000000000000000000600082015250565b60006122cb601683611831565b91506122d682612295565b602082019050919050565b600060208201905081810360008301526122fa816122be565b9050919050565b7f416c726561647920766f74656421210000000000000000000000000000000000600082015250565b6000612337600f83611831565b915061234282612301565b602082019050919050565b600060208201905081810360008301526123668161232a565b9050919050565b7f4e487b7100000000000000000000000000000000000000000000000000000000600052603260045260246000fd5b7f43616e646964617465206e6f7420726567697374657265640000000000000000600082015250565b60006123d2601883611831565b91506123dd8261239c565b602082019050919050565b60006020820190508181036000830152612401816123c5565b9050919050565b7f4e487b7100000000000000000000000000000000000000000000000000000000600052601160045260246000fd5b600061244282611781565b91507fffffffffffffffffffffffffffffffffffffffffffffffffffffffffffffffff820361247457612473612408565b5b600182019050919050565b7f566f746564202121000000000000000000000000000000000000000000000000600082015250565b60006124b5600883611831565b91506124c08261247f565b602082019050919050565b600060208201905081810360008301526124e4816124a8565b9050919050565b7f4f6e6c79206f776e65722063616e206465636c6172652077696e6e6572212100600082015250565b6000612521601f83611831565b915061252c826124eb565b602082019050919050565b6000602082019050818103600083015261255081612514565b9050919050565b7f4f6e6c79206f776e65722063616e2077686974656c697374207468652061646460008201527f7265737365732121000000000000000000000000000000000000000000000000602082015250565b60006125b3602883611831565b91506125be82612557565b604082019050919050565b600060208201905081810360008301526125e2816125a6565b9050919050565b7f566f74657220616c726561647920726567697374657265642121000000000000600082015250565b600061261f601a83611831565b915061262a826125e9565b602082019050919050565b6000602082019050818103600083015261264e81612612565b9050919050565b7f566f746572207265676973746572656421210000000000000000000000000000600082015250565b600061268b601283611831565b915061269682612655565b602082019050919050565b600060208201905081810360008301526126ba8161267e565b9050919050565b7f566f74696e672073746f70656421210000000000000000000000000000000000600082015250565b60006126f7600f83611831565b9150612702826126c1565b602082019050919050565b60006020820190508181036000830152612726816126ea565b905091905056fea2646970667358221220aa2eea1d58bcd90c8a748a8d57b44df7efcf8710c6b904d832799b18d769861b64736f6c63430008120033",
  "linkReferences": {},
  "deployedLinkReferences": {}
}